:10019500202020323032313033323939322020209C
:1001A500002020486F752052756E20446F6E6720C1
:0301B50020200007
:1001120078087C007D007BFF7A0179957E007F1153
:100122001200D378197C007D007BFF7A0179A67ECC
:10013200007F121200D31201B87B007A007908E422
:10014200FDFF1201567B007A0079197D01E4FF124E
:04015200015680FED4
:1001DA00AD071FED600FE4FEEEC394FA74809480BD
:0501EA0050EE0E80F351
:0101EF0022ED
:1001F0007580FFC2A6D2A5D2A7AF80C2A7052EEFF9
:0302000020E7F400
:0102030022D8
:10022800AE071201F0C2A6C2A58E80D2A7C2A7222D
:070204007F051201DA7F38CB
:0B020B00C2A6C2A58F80D2A7C2A72206
:10021600AE071201F0D2A6C2A5C2A78E80D2A7C28F
:02022600A7220D
:1001B8007F0F1202061202041202041202287F089C
:1001C8001202287F0C1202287F061202287F0102E1
:0201D8000228FB
:100156008B2B8A2C892DAE07EDFB7A007003EE807F
:1001660009EB64014A7009EE24404480FF1202281C
:10017600AB2BAA2CA92D1200F96013052DE52D70C5
:0F01860002052C14F91200F9FF12021680E22272
:03000000020238C1
:0C023800787FE4F6D8FD75812E020112DB
:10000300E709F608DFFA8046E709F208DFFA803EDF
:1000130088828C83E709F0A3DFFA8032E309F608CC
:10002300DFFA8078E309F208DFFA807088828C8334
:10003300E309F0A3DFFA806489828A83E0A3F608E8
:10004300DFFA805889828A83E0A3F208DFFA804CC2
:1000530080D280FA80C680D4806980F28033801099
:1000630080A680EA809A80A880DA80E280CA803302
:1000730089828A83ECFAE493A3C8C582C8CCC5837A
:10008300CCF0A3C8C582C8CCC583CCDFE9DEE7804A
:100093000D89828A83E493A3F608DFF9ECFAA9F0C9
:1000A300EDFB2289828A83ECFAE0A3C8C582C8CC1F
:1000B300C583CCF0A3C8C582C8CCC583CCDFEADE38
:1000C300E880DB89828A83E493A3F208DFF980CC9A
:1000D30088F0EF60010E4E60C388F0ED2402B40493
:1000E3000050B9F582EB2402B4040050AF2323453A
:0600F3008223900053730C
:1000F900BB010689828A83E0225002E722BBFE0205
:09010900E32289828A83E4932237
:00000001FF
