:040126007F0A7E00CE
:10012A00EFD394007480948040127E6EEED39400D4
:0C013A007480948040031E80F31F80E45A
:010146002296
:0800190012000312002680FB17
:10000300758920758DF3758BF3D28EC29FD29ED2E4
:060013009CD2AFD2AC222A
:080153008F993099FDC2992239
:1000260020A01012012620A002E4FD30A0FDAF059D
:1000360012015320A11012012620A1027D0130A138
:10004600FDAF0512015320A21012012620A2027D47
:100056000230A2FDAF0512015320A3101201262083
:10006600A3027D0330A3FDAF0512015320A4101295
:10007600012620A4027D0430A4FDAF051201532001
:10008600A51012012620A5027D0530A5FDAF05129B
:10009600015320A61012012620A6027D0630A6FDD9
:1000A600AF0512015320A71012012620A7027D07D3
:0800B60030A7FDAF0512015354
:0100BE00221F
:030023000200BF19
:0D00BF00C0E0C083C082C0D075D000C0007A
:0300CC0030984C1D
:1000CF0085990AE50AB40800503D9000E0F8282809
:1000DF00730200F80200FC02010002010402010891
:1000EF0002010C020110020114B290801AB2918029
:1000FF0016B2928012B293800EB294800AB295809B
:0C010F0006B2968002B297859909C2984A
:0B011B00D000D0D0D082D083D0E032E2
:03000000020147B3
:0C014700787FE4F6D8FD75810A020019EB
:00000001FF
