:100138003F065B4F666D7D077F6F777C395E79710F
:06000600010800010900E1
:030003000200FAFE
:1000FA00C0E0D29B7599143099FDC299C29BE5085C
:0F010A0004540FF508F5993099FDC299D0E032F1
:03001300020119CE
:10011900C0E0D29B7599153099FDC299C29BE5093A
:0F01290004540FF509F5993099FDC299D0E032D1
:030023000200D701
:1000D700C0E0C083C082C0D075D000C007AF99EF21
:1000E70090013893F590C298D007D0D0D082D083B2
:0300F700D0E03224
:1000B200D288D2A8D28AD2AAD2ACD2AF7589207500
:1000C20098F8C29D758BFD758DFDD28E900138E436
:0500D20093F59080FE93
:03000000020026D5
:0C002600787FE4F6D8FD75810902006DBA
:100032000200B2E493A3F8E493A34003F68001F232
:1000420008DFF48029E493A3F85407240CC8C333CF
:10005200C4540F4420C8834004F456800146F6DF9E
:10006200E4800B0102040810204080900006E47E28
:10007200019360BCA3FF543F30E509541FFEE49393
:10008200A360010ECF54C025E060A840B8E493A35A
:10009200FAE493A3F8E493A3C8C582C8CAC583CA85
:1000A200F0A3C8C582C8CAC583CADFE9DEE780BE3D
:01000C0000F3
:00000001FF
