:100006003F065B4F666D7D077F6F777C395E797142
:0300030002007880
:0B007800C29B7599013099FDC29932BE
:03002300020026B2
:10002600C0E0C083C082C0D075D000C007309A0B34
:10003600AF99EF6414700FC29D800BAF99EF9000DB
:100046000693F590D29DC298D007D0D0D082D083A7
:03005600D0E032C5
:10005900D288D2A87598F0758920758BFD758DFDAC
:0F006900D28ED2ACD2AF900006E493F59080FE19
:03000000020016E5
:0C001600787FE4F6D8FD758107020059E0
:00000001FF
