:100006003F065B4F666D7D077F6F777C395E797142
:0300030002007B7D
:09007B007599023099FDC2993219
:03002300020026B2
:10002600C0E0C083C082C0D075D000C00730B41B0A
:10003600C298309A0BAF99EF6415700FC29D800B72
:10004600AF99EF90000693F590D29DD007D0D0D00F
:0600560082D083D0E032ED
:10005C00D288D2A87598F0758920758BFD758DFDA9
:0F006C00D28ED2ACD2AF900006E493F59080FE16
:03000000020016E5
:0C001600787FE4F6D8FD75810702005CDD
:00000001FF
