:06017000010A00010B0072
:0D000600120162120169D2AF75A0FF80FBEC
:07016200D288D2A8C2B82226
:07016900D28AD2AAD2BA2209
:030003000200A256
:1000A200C0E0C0F0C083C082C0D075D000C000C024
:1000B20001C002C003C004C005C006C007750855D0
:1000C200750A00AF087801EF08800103D8FDF50832
:1000D200F5A0120154050AE50AC3940840E5D007C9
:1000E200D006D005D004D003D002D001D000D0D0A9
:0900F200D082D083D0F0D0E032BE
:030013000200FBED
:1000FB00C0E0C0F0C083C082C0D075D000C000C0CB
:10010B0001C002C003C004C005C006C0077509FECC
:10011B00750B00AF097801EF08800103D8FDF509D5
:10012B00F5A0120154050BE50BC3940840E5D0076D
:10013B00D006D005D004D003D002D001D000D0D04F
:09014B00D082D083D0F0D0E03264
:0D015400007F037E487DA1DDFEDEFCDFFAAA
:01016100227B
:03000000020016E5
:0C001600787FE4F6D8FD75810B02005DD8
:10002200020006E493A3F8E493A34003F68001F2EE
:1000320008DFF48029E493A3F85407240CC8C333DF
:10004200C4540F4420C8834004F456800146F6DFAE
:10005200E4800B0102040810204080900170E47ECD
:10006200019360BCA3FF543F30E509541FFEE493A3
:10007200A360010ECF54C025E060A840B8E493A36A
:10008200FAE493A3F8E493A3C8C582C8CAC583CA95
:10009200F0A3C8C582C8CAC583CADFE9DEE780BE4D
:010176000088
:00000001FF
