:1001F4003620486F752052756E20446F6E6720203C
:0702040031323334353600BE
:1001AA0078087C007D007BFF7A0179F47E007F1756
:1001BA001200D31201D27B007A0079087D01E4FF94
:0801CA0012016B12011280FE0C
:08027500040E151F1F150E04F5
:10020B00AD071FED600FE4FEEEC394FA748094808B
:05021B0050EE0E80F31F
:0102200022BB
:100221007580FFC2A6D2A5D2A7AF80C2A70527EFCE
:0302310020E7F4CF
:0102340022A7
:10025900AE07120221C2A6C2A58E80D2A7C2A722CA
:070235007F0512020B7F3868
:0B023C00C2A6C2A58F80D2A7C2A722D5
:10024700AE07120221D2A6C2A5C2A78E80D2A7C22C
:02025700A722DC
:1001D2007F0F1202371202351202351202597F08BE
:1001E2001202597F0C1202597F061202597F010234
:0201F2000259B0
:10016B008B1F8A208921AE07EDFB7A007003EE808E
:10017B0009EB64014A7009EE24404480FF120259D6
:10018B00AB1FAA20A9211200F960130521E52170EC
:0F019B0002052014F91200F9FF12024780E22238
:10011200781F7C007D007BFF7A0279757E007F0864
:100122001200D37F40120259E4FDEDC3940874809B
:100132009480501BE4FDEDC3940874809480500CAD
:10014200741F2DF8E6FF1202470D80EA0D80DB7F57
:1001520080120259E4FDEDC394107480948050081B
:08016200E4FF1202470D80EEDC
:01016A002272
:0300000002026990
:0C026900787FE4F6D8FD7581270201AA19
:10000300E709F608DFFA8046E709F208DFFA803EDF
:1000130088828C83E709F0A3DFFA8032E309F608CC
:10002300DFFA8078E309F208DFFA807088828C8334
:10003300E309F0A3DFFA806489828A83E0A3F608E8
:10004300DFFA805889828A83E0A3F208DFFA804CC2
:1000530080D280FA80C680D4806980F28033801099
:1000630080A680EA809A80A880DA80E280CA803302
:1000730089828A83ECFAE493A3C8C582C8CCC5837A
:10008300CCF0A3C8C582C8CCC583CCDFE9DEE7804A
:100093000D89828A83E493A3F608DFF9ECFAA9F0C9
:1000A300EDFB2289828A83ECFAE0A3C8C582C8CC1F
:1000B300C583CCF0A3C8C582C8CCC583CCDFEADE38
:1000C300E880DB89828A83E493A3F208DFF980CC9A
:1000D30088F0EF60010E4E60C388F0ED2402B40493
:1000E3000050B9F582EB2402B4040050AF2323453A
:0600F3008223900053730C
:1000F900BB010689828A83E0225002E722BBFE0205
:09010900E32289828A83E4932237
:00000001FF
