:10022A000114000115000108C00109C00A0A3F06AD
:08023A005B4F666D7D077F6FCD
:10020C00D3EF9400EE940040147D7C7C00ED1D70C7
:0D021C00011CED4C70F7EF1F70E61E80E333
:0102290022B2
:1001D2005389F0438901758AD0758C6FC28DD2AF75
:1001E200D2A9D28CD288D2A8D28AD2AAD2AF75B0E2
:1001F200FD8509A07F0F7E0012020C75B0FE8508F6
:0A020200A07F0F7E0012020C80E4C2
:03000B0002014FA0
:10014F00C0E0C0F0C083C082C0D075D000C000C076
:10015F0001C002C003C004C005C006C007C28C7531
:10016F008AD0758C5F0514E51464147039AF15EFE0
:10017F003395E0FEEF2401FFE43EFE7C007D0A1282
:10018F000038740A2DF8E6F4F5080515E51575F035
:10019F000A120016240AF8E6F4F509E515B43C0333
:1001AF00751500751400D28CD007D006D005D00479
:1001BF00D003D002D001D000D0D0D082D083D0F0E5
:0301CF00D0E0324B
:03000300020006F2
:03000600B28C3287
:03001300020243A3
:10024300C28C758AD0758C5FC28D7508C07509C064
:07025300751400751500325F
:030000000200C338
:0C00C300787FE4F6D8FD75811502010A73
:10001600C2D530F707B2D563F0FF05F030E70CB272
:10002600D5F4048463F0FF05F080018430D502F432
:020036000422A2
:10003800C2D5EC30E709B2D5E4C39DFDE49CFCEEE3
:1000480030E715B2D5E4C39FFFE49EFE12006EC3ED
:10005800E49DFDE49CFC800312006E30D507C3E4E8
:060068009FFFE49EFE2252
:1000CF000201D2E493A3F8E493A34003F68001F274
:1000DF0008DFF48029E493A3F85407240CC8C33332
:1000EF00C4540F4420C8834004F456800146F6DF01
:1000FF00E4800B010204081020408090022AE47E65
:10010F00019360BCA3FF543F30E509541FFEE493F5
:10011F00A360010ECF54C025E060A840B8E493A3BC
:10012F00FAE493A3F8E493A3C8C582C8CAC583CAE7
:10013F00F0A3C8C582C8CAC583CADFE9DEE780BE9F
:0102420000BB
:10006E00BC000BBE0029EF8DF084FFADF022E4CC76
:10007E00F875F008EF2FFFEE33FEEC33FCEE9DEC3F
:10008E00984005FCEE9DFE0FD5F0E9E4CEFD22ED85
:10009E00F8F5F0EE8420D21CFEADF075F008EF2FCF
:1000AE00FFED33FD4007985006D5F0F222C398FDC0
:0500BE000FD5F0EA225D
:00000001FF
