:08055E00E7DBBD7EDBE77EBD9B
:10050C00202C080000000100080002000400040078
:10051C000200080001001000008020000040400094
:0F052C000020800000110000000A000000040001
:04053C007F2C7E0191
:10054000EF1FAA0670011E4A6013E4FCFDC3ED9480
:0D0550007BEC940050EA0DBD00010C80F022
:01055D00227B
:1004CD008F4F8E4E8D4D8C4CE54FF54FE54EF54EC5
:1004DD00E54D540FF54DE4F54CE54FFFE48F80FFEE
:1004ED00E54EFEE4FDFC78081201E58F90E4FFFE79
:0F04FD00E54D540FFDE4FC78101201E58FA022AD
:10022C0078347C007D007BFF7A05795E7E007F044C
:10023C001200D378387C007D007BFF7A0579627ED2
:10024C00007F041200D3E4F53FF53EF53DF53C7418
:10025C00FF7543FEF542F541F5407547FEF546F551
:10026C0045F544E4F54BF54AF549F54830B1047FC2
:10027C000180027F0030B0047E0180027E00EE5FC0
:10028C006042E4F53FF53EF53DF53C30B1047F01AD
:10029C0080027F0030B0047E0180027E00EE5F6041
:1002AC00CBAF3FAE3EAD3DAC3C1204CDAF3FAE3E0E
:1002BC00AD3DAC3C1201C78F3F8E3E8D3D8C3C1248
:1002CC00053C80C730B1047F0180027F0020B00460
:1002DC007E0180027E00EE5F6060805130B1047F51
:1002EC000180027F0020B0047E0180027E00EE5F60
:1002FC007003020278AF43AE42AD41AC401204CD64
:10030C0012053CAF43AE42AD41AC40780112020441
:10031C008F438E428D418C4074FFFFFE7DEFFCAB12
:10032C0043AA42A941A840C31201D470AF74FF750F
:10033C0043FEF542F541F54080A220B1047F0180D7
:10034C00027F0030B0047E0180027E00EE5F6069A7
:10035C0074FF7547FEF546F545F54420B1047F0161
:10036C0080027F0030B0047E0180027E00EE5F7060
:10037C0003020278AF47AE46AD45AC441204CD1231
:10038C00053CAF47AE46AD45AC4478011202188F20
:10039C00478E468D458C4474FFFFFEFD7C7FAB473A
:1003AC00AA46A945A844C31201D470AF74FFF547FF
:1003BC00F5467545F7F54480A220B1047F01800213
:1003CC007F0020B0047E0180027E00EE5F7003028D
:1003DC000278E4F54BF54AF549F54820B1047F0164
:1003EC0080027F0020B0047E0180027E00EE5F70F0
:1003FC0003020278E54B25E025E02408F81201F809
:10040C001201C71204CD12053CE54B2401FFE43563
:10041C004AFEE43549FDE43548FCE47B0BFAF9F877
:10042C00120135AC00AD01AE02AF038F4B8E4A8D7D
:05043C00498C4880A678
:03000000020441B6
:0C044100787FE4F6D8FD75814F02048836
:10000300E709F608DFFA8046E709F208DFFA803EDF
:1000130088828C83E709F0A3DFFA8032E309F608CC
:10002300DFFA8078E309F208DFFA807088828C8334
:10003300E309F0A3DFFA806489828A83E0A3F608E8
:10004300DFFA805889828A83E0A3F208DFFA804CC2
:1000530080D280FA80C680D4806980F28033801099
:1000630080A680EA809A80A880DA80E280CA803302
:1000730089828A83ECFAE493A3C8C582C8CCC5837A
:10008300CCF0A3C8C582C8CCC583CCDFE9DEE7804A
:100093000D89828A83E493A3F608DFF9ECFAA9F0C9
:1000A300EDFB2289828A83ECFAE0A3C8C582C8CC1F
:1000B300C583CCF0A3C8C582C8CCC583CCDFEADE38
:1000C300E880DB89828A83E493A3F208DFF980CC9A
:1000D30088F0EF60010E4E60C388F0ED2402B40493
:1000E3000050B9F582EB2402B4040050AF2323453A
:0600F3008223900053730C
:1000F90075F008758200EF2FFFEE33FECD33CDCCBE
:1001090033CCC58233C5829BED9AEC99E582984040
:100119000CF582EE9BFEED9AFDEC99FC0FD5F0D61D
:10012900E4CEFBE4CDFAE4CCF9A88222B800C1B947
:100139000059BA002DEC8BF084CFCECDFCE5F0CB85
:10014900F97818EF2FFFEE33FEED33FDEC33FCEBBE
:1001590033FB10D703994004EB99FB0FD8E5E4F979
:10016900FA227818EF2FFFEE33FEED33FDEC33FC66
:10017900C933C910D7059BE99A4007EC9BFCE99A5A
:10018900F90FD8E0E4C9FAE4CCFB2275F010EF2F9F
:10019900FFEE33FEED33FDCC33CCC833C810D7079F
:1001A9009BEC9AE899400AED9BFDEC9AFCE899F8DA
:0E01B9000FD5F0DAE4CDFBE4CCFAE4C8F9226D
:0D01C700CFF4CFCEF4CECDF4CDCCF4CC22CD
:1001D400EB9FF5F0EA9E42F0E99D42F0E89C45F081
:0101E40022F8
:1001E500E8600FECC313FCED13FDEE13FEEF13FFF8
:0301F500D8F1221C
:0C01F800E6FC08E6FD08E6FE08E6FF2233
:10020400EF08800C33CE33CECD33CDCC33CC92E05B
:04021400D8F2FF22FB
:10021800EF08800CA2E0CC13CCCD13CDCE13CE13B7
:04022800D8F2FF22E7
:10044D0002022CE493A3F8E493A34003F68001F297
:10045D0008DFF48029E493A3F85407240CC8C333B0
:10046D00C4540F4420C8834004F456800146F6DF7F
:10047D00E4800B010204081020408090050CE47EFE
:10048D00019360BCA3FF543F30E509541FFEE49374
:10049D00A360010ECF54C025E060A840B8E493A33B
:1004AD00FAE493A3F8E493A3C8C582C8CAC583CA66
:1004BD00F0A3C8C582C8CAC583CADFE9DEE780BE1E
:01053B0000BF
:00000001FF
