:020000040800F2
:100000007006002089010008B505000823030008D8
:100010005F0400083B020008210A000800000000FD
:1000200000000000000000000000000015090008AA
:100030003D02000800000000F5080008CD09000896
:10004000A3010008A3010008A3010008A301000800
:10005000A3010008A3010008A3010008A3010008F0
:10006000A3010008A3010008A3010008A3010008E0
:10007000A3010008A3010008A3010008A3010008D0
:10008000A3010008A3010008A3010008A3010008C0
:10009000A3010008A3010008A3010008A3010008B0
:1000A000A3010008A3010008A3010008A3010008A0
:1000B000A3010008A3010008A3010008A301000890
:1000C000A3010008A3010008A3010008A301000880
:1000D000A3010008A3010008A3010008A301000870
:1000E000A3010008A3010008A301000800F002F822
:1000F00000F03AF80AA090E8000C82448344AAF188
:100100000107DA4501D100F02FF8AFF2090EBAE885
:100110000F0013F0010F18BFFB1A43F0010318473B
:10012000C00F0000E00F0000103A24BF78C878C16B
:10013000FAD8520724BF30C830C144BF04680C60ED
:10014000704700000023002400250026103A28BF35
:1001500078C1FBD8520728BF30C148BF0B60704739
:100160001FB51FBD10B510BD00F031F81146FFF7E7
:10017000F7FF00F057FC00F04FF803B4FFF7F2FF71
:1001800003BC00F053F800000948804709480047C5
:10019000FEE7FEE7FEE7FEE7FEE7FEE7FEE7FEE737
:1001A000FEE7FEE704480549054A064B7047000094
:1001B000D1090008ED000008700000207006002042
:1001C000700200207002002070477047704775462B
:1001D00000F028F8AE4605006946534620F00700B7
:1001E000854618B020B5FFF7DDFFBDE820404FF091
:1001F00000064FF000074FF000084FF0000B21F011
:100200000701AC46ACE8C009ACE8C009ACE8C009DD
:10021000ACE8C0098D4670470446AFF30080204625
:10022000FFF7ABFF004870470C0000200149182081
:10023000ABBEFEE7260002007047FEE7704700EB0A
:10024000C000C1004FF0E020416100218161052123
:1002500001610169C903FCD50421016170472DE9E1
:10026000F0410022CC7804F00F03E40601D58C782D
:1002700023430C784FF00F0714F0FF0F4FF0010CE1
:100280001CD005680CFA02F40E882640A64211D153
:10029000960007FA06F825EA080503FA06F848EA80
:1002A0000505CE78282E02D0482E02D002E0446107
:1002B00000E00461521C082AE4D305600A88FF2A82
:1002C0001ED94568002202F108060CFA06F40E88D1
:1002D0002640A64210D1960007FA06F825EA08053E
:1002E00003FA06F848EA0505CE78282E00D14461C5
:1002F000CE78482E00D10461521C082AE3D3456011
:10030000BDE8F0810246002092680A4200D0012038
:10031000704701617047002A01D001617047416157
:100320007047FEE72DE9F0478246DDE9086589461A
:1003300090461F463B2000F05BF804463C2000F04E
:1003400057F840EA0420AAF800003D2000F050F8D9
:1003500004463E2000F04CF840EA0420A9F80000D2
:100360003F2000F045F80446402000F041F840EA04
:100370000420A8F80000432000F03AF80446442086
:1003800000F036F840EA04203880452000F030F8CC
:100390000446462000F02CF840EA04203080472034
:1003A00000F026F80446482000F022F840EA042035
:1003B0002880BDE8F08710B500F052F801216B20CD
:1003C00000F035F800216C2000F031F809211920E7
:1003D00000F02DF806211A2000F029F818211B2022
:1003E00000F025F81821BDE810401C2000F01FB8CF
:1003F00010B5044600F0A6F8D02000F08FF800F009
:1004000059F8204600F08AF800F054F800F09AF805
:10041000D12000F083F800F04DF800F05AF80446BF
:10042000012000F070F800F09CF8204610BD70B577
:1004300005460C4600F086F8D02000F06FF800F07A
:1004400039F8284600F06AF800F034F8204600F049
:1004500065F800F02FF8BDE8704000F082B8FEE7C4
:1004600038B50121082000F047FA14208DF8030068
:100470004FF44064ADF8004003208DF80200054DB4
:1004800069462846FFF7EBFE21462846FFF741FF65
:1004900038BD0000000C014010B54FF40061044865
:1004A000FFF730FF04460A20FFF7C9FE204610BDC3
:1004B000000C014010B5012000F06EF8012000F0A2
:1004C0005DF8FFF7E9FF0446002000F057F82046EA
:1004D00010BD70B50025012000F05EF800248026D4
:1004E000012000F04BF8FFF7D7FF012802D126FAD0
:1004F00004F00543002000F041F8641CE4B2082C2D
:10050000EED3284670BD10B500F046F8012000F08B
:1005100035F8BDE81040002000F030B870B5054651
:100520000024802626FA04F0284000F035F8012047
:1005300000F024F8002000F021F8641CE4B2082C3C
:10054000F0D370BD10B5012000F026F8012000F0B6
:1005500015F8002000F020F8BDE81040002000F061
:100560000DB810B5002000F017F8012000F006F8D3
:10057000BDE81040012000F00FB8000010B50246A1
:100580004FF480610348FFF7C6FEBDE810400A2023
:10059000FFF755BE000C014010B502464FF4006154
:1005A0000348FFF7B8FEBDE810400A20FFF747BE3A
:1005B000000C0140704770B500250021284600F06E
:1005C000F5F80024002000F084F9641CE4B2802CCB
:1005D000F8D36D1CEDB2082DEFD370BDF8B5012135
:1005E000082000F089F914208DF8030003208DF80D
:1005F00002004FF48074ADF800400B4E694630465F
:10060000FFF72DFE6500ADF8005069463046FFF754
:1006100026FE012221463046FFF77DFE01222946B3
:100620003046FFF778FEF8BD000C01402DE9F04799
:1006300007460024134D4FF080094FF40078AE15A3
:1006400029FA04F23A4041462846FFF764FE0122A7
:1006500031462846FFF75FFE002231462846FFF765
:100660005AFE641CE4B2082CEAD301223146284623
:10067000FFF751FE31462846BDE8F0470022FFF75C
:100680004ABE0000000C014070B501220B4D54021F
:1006900021462846FFF73FFE012216023146284632
:1006A000FFF739FE002221462846FFF734FE314687
:1006B0002846BDE870400022FFF72DBE000C014027
:1006C00070B50A4D4FF40074002221462846FFF70A
:1006D00022FE012211022846FFF71DFE2146284670
:1006E000BDE870400122FFF716BE0000000C01407B
:1006F00010B500214FF47A720020401C9042FCD3C8
:10070000491C9142F8D3FFF769FFAE2000F0D0F802
:10071000D52000F0CDF8802000F0CAF8A82000F025
:10072000C7F83F2000F0C4F8D32000F0C1F8002043
:1007300000F0BEF8402000F0BBF8A12000F0B8F8AF
:10074000C82000F0B5F8DA2000F0B2F8122000F06E
:10075000AFF8812000F0ACF8CF2000F0A9F8D92044
:1007600000F0A6F8F12000F0A3F8DB2000F0A0F8DC
:10077000302000F09DF8A42000F09AF8A62000F0A8
:1007800097F88D2000F094F8142000F091F8AF2035
:1007900000F08EF8BDE81040FFF70DBF03460120C2
:1007A00000E05843491E4A1CFBD1704710B50C4667
:1007B00040F0B00000F07CF8102040EA141000F087
:1007C00077F804F00F00BDE8104000F071B80000A9
:1007D0002DE9F0411546491E461ECF007006F9B2BC
:1007E000000EFFF7E3FF00240E48203D00EB051547
:1007F000285D00F06EF8641CE4B2082CF8D30120E8
:1008000000EB4600F9B2C0B2FFF7D0FF0024281970
:10081000007A00F05EF8641CE4B2082CF7D3BDE85F
:10082000F0810000F00A00082DE9F0478246894671
:1008300017469846002F05DB2B2249465046FFF706
:10084000C7FF05E02D2249465046FFF7C1FF7F4212
:1008500000240A2515E0A8EB0401491E0A20FFF731
:100860009DFFB7FBF0F6B6FBF5F005FB106209EB58
:100870000400401CC1B230325046FFF7A9FF641C8F
:10088000E4B24445E7D3BDE8F0872DE9F0410746DF
:100890000D461646002406E02819C1B23846FFF777
:1008A00097FF641CE4B2325D002AF5D1BDE8F08107
:1008B00010B50446FFF7E8FE7820FFF7B7FE0020EA
:1008C000FFF7B4FE2046FFF7B1FEBDE81040FFF78A
:1008D000F7BE10B50446FFF7D7FE7820FFF7A6FE57
:1008E0004020FFF7A3FE2046FFF7A0FEBDE8104022
:1008F000FFF7E6BE70470000054A002903D0916962
:100900000143916170479169814391617047000093
:1009100000100240704700F001B800000CB5002242
:10092000019200922748016841F4803101604FF440
:10093000A063016801F4003100910199491C019103
:10094000009911B901999942F3D10168890302D53F
:100950000121009100E000920099012930D11A494B
:100960000A6842F010020A600A6822F003020A6074
:100970000A6842F002020A604168416041684160D1
:10098000416841F480614160416821F47C1141601B
:10099000416841F4E8114160016841F080710160F3
:1009A00001688901FCD5416821F00301416041687B
:1009B00041F0020141604168C1F381010229FAD18D
:1009C0000CBD0000001002400020024070470000F3
:1009D00010B50F48016841F00101016041680D4AFE
:1009E0001140416001680C4A11400160016821F426
:1009F00080210160416821F4FE0141604FF41F0134
:100A00008160FFF788FF05494FF00060086010BD66
:100A1000001002400000FFF8FFFFF6FE08ED00E0C6
:100A2000FEE700001CB5FFF763FEFFF7C4FC284D8E
:100A3000AE1EA5F10A04264BCDE900651B1F9A1EC8
:100A4000911E881EFFF76EFC22A203210120FFF7F2
:100A50001CFF22A20A210120FFF717FF21A201217A
:100A60000220FFF712FF0523B4F900200321022022
:100A7000FFF7DAFE1CA201210320FFF706FF032186
:100A80000523B4F902200846FFF7CEFE17A2012184
:100A90000420FFF7FAFE0523B4F904200321042003
:100AA000FFF7C2FE0523B4F906200A210220FFF752
:100AB000BBFE0523B4F908200A210320FFF7B4FE8A
:100AC0000523B4F90A200A210420FFF7ADFEB2E79E
:100AD0000A000020414343454C0000004759524F53
:100AE00000000000583A0000593A00005A3A00004D
:100AF00000000000000000000000000000000000F6
:100B0000000000F80000000000000033300000008A
:100B100000100C06100C0600000000000000000091
:100B200040C07840C0784000043F04043F04040003
:100B3000007088FC08300000001820FF211E000013
:100B4000F008F000E018000000211C031E211E0028
:100B500000F00888700000001E21232419272110AE
:100B600010160E0000000000000000000000000051
:100B7000000000E0180402000000000718204000F8
:100B800000020418E00000000040201807000000E8
:100B9000404080F0804040000202010F010202004C
:100BA000000000F0000000000101011F0101010030
:100BB000000000000000000080B070000000000095
:100BC000000000000000000000010101010101011E
:100BD00000000000000000000030300000000000B5
:100BE000000000008060180400601806010000008A
:100BF00000E010080810E000000F102020100F0087
:100C0000001010F8000000000020203F202000000D
:100C10000070080808887000003028242221300065
:100C200000300888884830000018202020110E006D
:100C30000000C02010F8000000070424243F240016
:100C400000F80888880808000019212020110E00EB
:100C500000E0108888180000000F112020110E00FD
:100C600000380808C83808000000003F00000000F5
:100C70000070880808887000001C222121221C00B6
:100C800000E010080810E0000000312222110F00DF
:100C9000000000C0C0000000000000303000000074
:100CA00000000080000000000000806000000000E4
:100CB00000008040201008000001020408102000FD
:100CC0004040404040404000040404040404040048
:100CD00000081020408000000020100804020100DD
:100CE000007048080808F0000000003036010000DD
:100CF000C030C828E810E0000718272423140B0090
:100D00000000C038E0000000203C23020227382009
:100D100008F8888888700000203F202020110E00ED
:100D2000C0300808080838000718202020100800E4
:100D300008F808080810E000203F202020100F00CD
:100D400008F88888E8081000203F20202320180099
:100D500008F88888E8081000203F20000300000001
:100D6000C03008080838000007182020221E0200A2
:100D700008F808000008F808203F210101213F2061
:100D8000000808F8080800000020203F202000008C
:100D900000000808F8080800C08080807F0000007C
:100DA00008F888C028180800203F200126382000B5
:100DB00008F8080000000000203F2020202030001C
:100DC00008F8F800F8F80800203F003F003F200036
:100DD00008F830C00008F808203F200007183F003E
:100DE000E01008080810E0000F10202020100F006D
:100DF00008F808080808F000203F21010101000060
:100E0000E01008080810E0000F18242438504F00A4
:100E100008F8888888887000203F2000030C302064
:100E200000708808080838000038202121221C00A2
:100E3000180808F8080818000000203F20000000EB
:100E400008F808000008F808001F202020201F00D4
:100E50000878880000C83808000007380E01000034
:100E6000F80800F80008F800033C0700073C0300FE
:100E7000081868808068180820302C03032C302064
:100E80000838C800C83808000000203F20000000D3
:100E900010080808C838080020382621202018002B
:100EA000000000FE020202000000007F40404000FF
:100EB000000C30C000000000000000010638C00037
:100EC00000020202FE000000004040407F000000DF
:100ED0000000040202020400000000000000000004
:100EE0000000000000000000808080808080808002
:100EF00000020204000000000000000000000000EA
:100F000000008080808000000019242222223F20DF
:100F100008F8008080000000003F112020110E0022
:100F20000000008080800000000E112020201100B1
:100F3000000000808088F800000E112020103F2063
:100F40000000808080800000001F222222221300E7
:100F5000008080F0888888180020203F2020000032
:100F60000000808080808000006B949494936000E7
:100F700008F8008080800000203F210000203F20F2
:100F800000809898000000000020203F20200000F2
:100F9000000000809898000000C08080807F0000E2
:100FA00008F8000080808000203F24022D302000BF
:100FB000000808F8000000000020203F202000006A
:100FC0008080808080808000203F20003F20003F84
:100FD0008080008080800000203F210000203F2092
:100FE0000000808080800000001F202020201F0043
:100FF000808000808000000080FFA12020110E0072
:101000000000008080808000000E112020A0FF8062
:10101000808080008080800020203F21200001000F
:101020000000808080808000003324242424190064
:10103000008080E0808000000000001F2020000071
:101040008080000000808000001F202020103F20B2
:10105000808080000080808000010E300806010042
:1010600080800080008080800F300C030C300F00E7
:1010700000808000808080000020312E0E31200012
:10108000808080000080808080818E701806010042
:1010900000808080808080000021302C2221300060
:1010A00000000000807C020200000000003F404081
:1010B00000000000FF00000000000000FF00000032
:1010C0000002027C800000000040403F0000000061
:1010D00000060101020204040000000000000000FC
:1010E00000110008000000200C000000280100088A
:1010F0000C1100080C0000206406000044010008E8
:0C110000000000000000000000000000E3
:04000005080000ED02
:00000001FF
