:0401070002080000EA
:10008F0075A0FF7F887E131200FCE4F508F509E4E4
:10009F00F5A0AF09AE081200FC1200EE0509E50944
:1000AF0070020508C394F4E508940140E2E4F5A05A
:1000BF007F887E131200FC7508017509F3D3E509DB
:1000CF009400E508940040B8E4F5A0AF09AE08121B
:0F00DF0000FC1200EEE509150970E2150880DE3D
:0E00EE0075A0FFC374F49509FF74019508FE18
:0B00FC00EF1FAC0670011E4C70F622D6
:03000000020003F8
:0C000300787FE4F6D8FD75810902004A00
:10000F0002008FE493A3F8E493A34003F68001F278
:10001F0008DFF48029E493A3F85407240CC8C333F2
:10002F00C4540F4420C8834004F456800146F6DFC1
:10003F00E4800B0102040810204080900107E47E49
:10004F00019360BCA3FF543F30E509541FFEE493B6
:10005F00A360010ECF54C025E060A840B8E493A37D
:10006F00FAE493A3F8E493A3C8C582C8CAC583CAA8
:10007F00F0A3C8C582C8CAC583CADFE9DEE780BE60
:01010B0000F3
:00000001FF
