:030000000207BC38
:0C07BC00787FE4F6D8FD75815002080338
:030A6100014E0043
:100A8A00D2AF758901758AAF758CAFC28DD28C22AF
:1003E600751400751501752E7F120A8A120006D241
:1003F600AFD2B8D288D2A8C2B9D2A97F01120A0058
:10040600755001E51545147006F514F515800DE5D2
:1004160015640145147005F514751501E550640160
:050426006003020597D0
:10042B00F52F741D252FF8E6647F60D2E550B401DB
:10043B00CD7B007A0079111206D28E128F13E4F560
:10044B00307F811209228F10120AC1743A2FF8E6FD
:10045B00F51DAF10120ABB743A2FF8E6F51C751B8D
:10046B00BF7F831209228F10120AC1743A2FF8E64C
:10047B00F51AAF10120ABB743A2FF8E6F519751876
:10048B00BF7F851209228F10120AC1743A2FF8E62A
:10049B00F517AF10120ABB743A2FF8E6F516751E56
:1004AB00F77F871209228F10120AC1743A2FF8E6D0
:1004BB00F526AF10120ABB743A2FF8E6F525752412
:1004CB00BF7F891209228F10120AC1743A2FF8E6E6
:1004DB00F523AF10120ABB743A2FF8E6F5227521FB
:1004EB00BF7F8D1209228F10120AC1743A2FF8E6C2
:1004FB00F520AF10120ABB743A2FF8E6F51F7527DB
:10050B00F7E511B401057528BF8007E51170037578
:10051B0028B9AE12AF137C007D64120383743A2F9B
:10052B00F8E6F529AE12AF137C007D0A1203837C2B
:10053B00007D0A120383743A2DF8E6F52AAE12AF4A
:10054B00137C007D0A120383743A2DF8E6F52B75A4
:10055B002C9C752DC6752E7FE52F25302416F8E6BD
:10056B00FF74082530F8A6070530E530C394085012
:10057B000302044C7B007A007908120970E54F7076
:0C058B000302042D052FE4F54F02042D9F
:10059700E550640270447F811209228F10120AC14C
:1005A700743A2FF8E6F50FAF10120ABB743A2FF81A
:1005B700E6F50E750DBF7F831209228F10120AC14F
:1005C700743A2FF8E6F50CAF10120ABB743A2FF8FD
:1005D700E6F50B750ABF7F858048E55064037069AF
:1005E7007F871209228F10120AC1743A2FF8E6F595
:1005F7000FAF10120ABB743A2FF8E6F50E750DBF50
:100607007F891209228F10120AC1743A2FF8E6F572
:100617000CAF10120ABB743A2FF8E6F50B750ABF38
:100627007F8D1209228F10120AC1743A2FF8E6F54E
:1006370009AF10120ABB743A2FF8E6F5087B007A67
:10064700007908120970020409E550640460030286
:100657000409FB7A0079111206D28E128F137508DE
:10066700FFE511B401057509BF8007E51170037532
:1006770009B9AE12AF137C007D64120383743A2F5D
:10068700F8E6F50AAE12AF137C007D0A1203837CED
:10069700007D0A120383743A2DF8E6F50BAE12AF0C
:1006A700137C007D0A120383743A2DF8E6F50C7566
:1006B7000D9C750EC6750FFF7B007A00790812092D
:0B06C700707F057E00120A4302040948
:03000300020848A8
:10084800C0E0C0F0C083C082C0D075D000C000C076
:1008580001C002C003C004C005C006C007054EE5BC
:100868004E7015755001F54BF54C758AAF758CAF08
:10087800C28DD28C7F01801DE54EB4010C754F00EE
:10088800755002C28C7F02800CE54EB4020C755084
:1008980003C28C7F03120A008012E54EB4030D7563
:1008A8005004C28C7F04120A00754EFFD007D00690
:1008B800D005D004D003D002D001D000D0D0D0824F
:0708C800D083D0F0D0E03234
:03000B00020A23C3
:100A2300C0E0758AAF758CAF054CE54C7002054B81
:100A3300641C454B7007F54BF54C754F01D0E03204
:05000600C290C291222E
:0208CF00A90777
:1008D100D290E4FB7E007401A803088005C333CEE7
:1008E10033CED8F9FFE9F582EF558224FF9292D2F7
:1008F10091C2910BBB08DDE4FB7E007401A80308E3
:100901008005C333CE33CED8F9FFEDF582EF5582A2
:1009110024FF9292D291C2910BBB08DDC290C29288
:0109210022B3
:02092200AD071F
:10092400E4F9430501D290FB7E007401A80308801A
:1009340005C333CE33CED8F9FFEDF582EF558224CB
:10094400FF9292C291D2910BBB08DDE4FBD291C21B
:100954009130920DA8037401088002C333D8FC427D
:0B096400010BBB08E8C290C292AF017B
:01096F002265
:060ABB00EFC4540FFF22FE
:050AC100EF540FFF22BD
:100A4300D3EF9400EE940040147D7C7C00ED1D7088
:0D0A5300011CED4C70F7EF1F70E61E80E3F4
:010A60002273
:0C0A7800120A84120A84120A84120A84F2
:050A8400007F02DFFE0F
:010A8900224A
:080AAA007F027E27DEFEDFFC67
:010AB2002221
:100A9A00C2A3120AAAD2A320A3FD30A3FDD2A32285
:0209D600AE076A
:1009D8007D01ED6022C2A300000000005E7004C229
:1009E800A38002D2A3120A780000000000D2A3005C
:0709F80000ED25E0FD80DBAE
:0109FF0022D5
:1009A600E4FE7D01ED6026C2A30000D2A300000094
:1009B60000000020A305F452068003ED4206120A49
:0F09C600780000D2A30000ED25E0FD80D7AF063A
:0109D50022FF
:0606D2008B318A328933EE
:1006D800E4F534F535FCFF0FFE120A43120A9A7F3F
:1006E800CC1209D67F441209D6120A9A7FCC120975
:1006F800D67FBE1209D61209A6AC071209A6753410
:10070800008F35E535753500F534AF04EF4235E532
:100718003454F0FEEEB4F034E535F4FFE534F4FE7D
:10072800EF2401F535E43EF534FCAD35E412028AD8
:10073800E4FBFA7980783D1201068F398E388D37BF
:100748008C36AB31AA32A93374018021AC34AD3573
:10075800E412028AE4FBFA7980783D1201068F39A7
:100768008E388D378C36AB31AA32A933E412037137
:10077800AF39AE38AD37AC361202C38E348F35ACD4
:1007880034AD35E412028AA804A905AA06AB07AF5E
:1007980039AE38AD37AC36120011E4FBFAF9783FC0
:1007A80012020C600250080535E53570020534AEBA
:0307B80034AF3526
:0107BB00221B
:080AB30000010203040506071F
:100A6400113AC0F9A4B0999282F880908883C6A103
:030A7400868E7FEC
:060970008B318A3289334D
:10097600E4F53453A0F8E534900AB39342A0AB31C2
:10098600AA32A933853482758300120344F5807F29
:0F099600017E00120A430534E534C3940840D4AF
:0109A500222F
:100A0000EF24FE600F14601114601324037013D2DE
:100A1000B6C2B722C2B6D2B722D2B6D2B722C2B6B7
:030A2000C2B72238
:10000E0002032FE86480F8E933E83360110460F0EE
:10001E00ED33EC337009E8FCE9FDEAFEEBFF220458
:10002E0060DED3EB9FEA9EE99DE8C2E78CF0C2F753
:10003E0095F0400CE8CCF8E9CDF9EACEFAEBCFFB1F
:10004E001202FA85D0F05804700320D5B3E804707C
:10005E00075002B2D502033992D5EC0460F7E4CC16
:10006E00C0E0C398F8603B94186008400DD0E0FBE8
:10007E00020311E4FBFAC9FC8028E830E406E4C967
:10008E00FBE4CAFCE830E305E4C9CACBFCE854073C
:10009E006010F8C3E913F9EA13FAEB13FBEC13FC47
:1000AE00D8F130F52FC3E49CFCEF9BFFEE9AFEEDEA
:1000BE0099FDD0E0FBEF4E4D4C701222DB03020394
:1000CE0036EC2CFCEF33FFEE33FEED33FDED30E777
:1000DE00EB020311EF2BFFEE3AFEED39FDD0E0FB04
:1000EE0050130BBB0003020339ED13FDEE13FEEFAD
:0800FE0013FFEC13FC020311D7
:10010600EC4D6011E8497017ED33EC3304600DE4F3
:10011600FCFFFEFD22E933E8330470F802032F12D8
:1001260002FA58046009E4CC2481500628500902DA
:100136000339284003020336C0E0EB4A7044B98015
:1001460006D0E0FB020325EF4E701CBD8008EBFFD6
:10015600EAFEE9FD80EBE98DF0A4FEE5F00201EF91
:10016600E9CDF9EAFEEBFFEF89F0A4FCE5F0CE89D4
:10017600F0A42EFFE435F0CD89F0A42DFEE435F091
:100186008067EF4E7005BD80D780C3EF8BF0A4ACBF
:10019600F0EE8BF0A42CFCE435F0F8EF8AF0A42CFA
:1001A600E5F038FCE433CB8DF0A42CFCE5F03BF80D
:1001B600EE8AF0A42CFCE5F038F8E433CF89F0A4FD
:1001C6002CFCE5F038CF3400CE89F0A42FFFE5F003
:1001D6003EFEE433C98DF0A42EFEE5F039CD8AF05B
:1001E600A42FFFE5F03EFEE43DFD33D0E0FB5007D3
:1001F6000BBB000F020339EC2CFCEF33FFEE33FE92
:06020600ED33FD020311BF
:10020C0074F8CC6480CCC86480C8F58204604FC399
:10021C00EB9FF5F0EA9E42F0E99D42F0E89C45F038
:10022C00603C501DE5825FFFE582D313CB5BCBF4C2
:10023C002B5582FB50280ABA002409B900200880EB
:10024C001DE5825BFBE582D313CF5FCFF4C3132F85
:10025C005582FF50090EBE00050DBD00010CC3EB0D
:10026C009FF5F0EA9E42F0E99D42F0E89C45F06073
:09027C0007CC4820E701B3EC2295
:1002850075F020800E75F010800575F0087D007EF4
:10029500007F003392D530D5031203D8EC334010DC
:1002A500EF33FFEE33FEED33FDEC33FCD5F0ED22FD
:0E02B500E5F0247EA2D513CC92E7CDCEFF2239
:1002C300EDD2E7CD33EC3392D524814006E4FFFE33
:1002D300FDFC22FCE4CFCECDCC24E0501174FF8092
:1002E300EDC3CC13CCCD13CDCE13CECF13CF04702F
:0702F300F030D5DE0203D854
:1002FA00E9D2E7C933E833F892D5EDD2E7CD33EC4A
:07030A0033FC5002B2D522C2
:10031100EC30E7100FBF000C0EBE00080DBD00044D
:100321000BEB6014A2D5EB13FCED92E7FD2274FFF9
:10033100FCFDFEFF22E480F8A2D574FF13FC7D8052
:03034100E480EF66
:1007C8000203E6E493A3F8E493A34003F68001F25E
:1007D80008DFF48029E493A3F85407240CC8C33332
:1007E800C4540F4420C8834004F456800146F6DF01
:1007F800E4800B0102040810204080900A61E47E26
:10080800019360BCA3FF543F30E509541FFEE493F5
:10081800A360010ECF54C025E060A840B8E493A3BC
:10082800FAE493A3F8E493A3C8C582C8CAC583CAE7
:10083800F0A3C8C582C8CAC583CADFE9DEE780BE9F
:010A7700007E
:10034400BB010CE58229F582E5833AF583E022506E
:1003540006E92582F8E622BBFE06E92582F8E222B8
:0D036400E58229F582E5833AF583E49322D2
:10037100BB010689828A83F0225002F722BBFE016B
:02038100F32265
:10038300BC000BBE0029EF8DF084FFADF022E4CC5E
:10039300F875F008EF2FFFEE33FEEC33FCEE9DEC27
:1003A300984005FCEE9DFE0FD5F0E9E4CEFD22ED6D
:1003B300F8F5F0EE8420D21CFEADF075F008EF2FB7
:1003C300FFED33FD4007985006D5F0F222C398FDA8
:0503D3000FD5F0EA2245
:0E03D800C3E49FFFE49EFEE49DFDE49CFC2236
:00000001FF
