:10005B003F065B4F666D7D077F6F7FBFDFEFF7FB63
:0A006B00FDFE5B063F4F5B6F6F5B0D
:10003D00D3EF9400EE940040147D7C7C00ED1D7098
:0D004D00011CED4C70F7EF1F70E61E80E304
:01005A002283
:10000300E4F508AF087E00C3EF9408748094805031
:10001300EFC374079FFFE49EFE74652FF58274009F
:100023003EF583E493F5B0E50890006D93F5A07F6A
:0A003300057E0012003D050880C99B
:0300000002007586
:0C007500787FE4F6D8FD758108020003D6
:00000001FF
