:03001700010800DD
:10000300759850758920758BFD758DFDD2ACD2AF77
:04001300D28E80FE0B
:030023000200B226
:1000B200C0E0C0F0C083C082C0D030B502C2B5304B
:1000C2009861C298859908E50814B40800504E90CA
:1000D20000DF75F003A4C58325F0C583730200F722
:1000E2000200FC02010102010602010B02011002E0
:1000F200011502011A75A0FE802975A0FD802475E4
:10010200A0FB801F75A0F7801A75A0EF801575A05F
:10011200DF801075A0BF800B75A07F800675990ED9
:0E01220075A0AAD0D0D082D083D0F0D0E03229
:03000000020026D5
:0C002600787FE4F6D8FD75810802006DBB
:10003200020003E493A3F8E493A34003F68001F2E1
:1000420008DFF48029E493A3F85407240CC8C333CF
:10005200C4540F4420C8834004F456800146F6DF9E
:10006200E4800B0102040810204080900017E47E17
:10007200019360BCA3FF543F30E509541FFEE49393
:10008200A360010ECF54C025E060A840B8E493A35A
:10009200FAE493A3F8E493A3C8C582C8CAC583CA85
:1000A200F0A3C8C582C8CAC583CADFE9DEE780BE3D
:01001A0000E5
:00000001FF
