:0300000002066392
:0C066300787FE4F6D8FD7581550206AAE8
:030A3600014F016C
:10001E00E4FD7F1F12098DE4FF120A9A7D017F1FF6
:10002E0012098D7F01120A9A7B007A007908120953
:10003E00CB120006120A04120A64120ABAE4FF1264
:0B004E000928E54F640160030202581E
:10005900F53174172531F8E664FE60EB752BFEE582
:100069004FB401E37F811207BB8F30120AE5743A5E
:100079002FF8E6F517AF30120AC1743A2FF8E6F5F2
:10008900167515BF7F831207BB8F30120AE5743AC4
:100099002FF8E6F514AF30120AC1743A2FF8E6F5D5
:1000A900137512BF7F851207BB8F30120AE5743AA8
:1000B9002FF8E6F511AF30120AC1743A2FF8E6F5B8
:1000C900107518F77F871207BB8F30120AE5743A4B
:1000D9002FF8E6F520AF30120AC1743A2FF8E6F589
:1000E9001F751EBF7F891207BB8F30120AE5743A4C
:1000F9002FF8E6F51DAF30120AC1743A2FF8E6F56C
:100109001C751BBF7F8D1207BB8F30120AE5743A2D
:100119002FF8E6F51AAF30120AC1743A2FF8E6F54E
:10012900197521F7E4F532E53125322410F8E6FF97
:1001390074082532F8A6070532E532B408E9E54B1B
:10014900C394025003020240C28EE4F54BFF120829
:10015900AA1204FA8E2C8F2DC3E52C64809480504A
:1001690010C3E4952DF52DE4952CF52C7522BF804F
:10017900037522FFAE2CAF2D7C007D641205CA7475
:100189003A2FF8E6F523AE2CAF2D7C007D0A120537
:10019900CA7C007D0A1205CA743A2DF8E6F524AE28
:1001A9002CAF2D7C007D0A1205CA743A2DF8E6F5AC
:1001B90025E4FF120A9A7526F77B007A007908125E
:1001C90008467F011208AA1204FA8E2E8F2FC3E562
:1001D9002E648094805010C3E4952FF52FE4952E5A
:1001E900F52E7527BF80037527FFAE2EAF2F7C0034
:1001F9007D641205CA743A2FF8E6F528AE2EAF2FA2
:100209007C007D0A1205CA7C007D0A1205CA743A6F
:100219002DF8E6F529AE2EAF2F7C007D0A1205CA0E
:10022900743A2DF8E6F52A7F01120A9A7B007A00C2
:100239007908120846D28E7B007A0079081208469E
:0F024900E54C700302005B0531E4F54C02005BED
:10025800E54F640270447F811207BB8F30120AE5B4
:10026800743A2FF8E6F50FAF30120AC1743A2FF836
:10027800E6F50E750DBF7F831207BB8F30120AE5B6
:10028800743A2FF8E6F50CAF30120AC1743A2FF819
:10029800E6F50B750ABF7F858048E54F64037069F2
:1002A8007F871207BB8F30120AE5743A2FF8E6F5FC
:1002B8000FAF30120AC1743A2FF8E6F50E750DBF6C
:1002C8007F891207BB8F30120AE5743A2FF8E6F5DA
:1002D8000CAF30120AC1743A2FF8E6F50B750ABF55
:1002E8007F8D1207BB8F30120AE5743A2FF8E6F5B6
:1002F80009AF30120AC1743A2FF8E6F5087B007A84
:10030800007908120846020050E54F6404600302B1
:100318000050E54BC394025003020410C28EE4F56A
:100328004BFF1208AA1204FA8E2C8F2DC3E52C64F9
:100338008094805010C3E4952DF52DE4952CF52C70
:100348007508BF80037508FFAE2CAF2D7C007D6457
:100358001205CA743A2FF8E6F509AE2CAF2D7C00C9
:100368007D0A1205CA7C007D0A1205CA743A2DF866
:10037800E6F50AAE2CAF2D7C007D0A1205CA743A48
:100388002DF8E6F50BE4FF120A9A7B007A0079084B
:100398001208467F011208AA1204FA8E2E8F2FC364
:1003A800E52E648094805010C3E4952FF52FE495D2
:1003B8002EF52E750CBF8003750CFFAE2EAF2F7C6B
:1003C800007D641205CA743A2FF8E6F50DAE2EAF1B
:1003D8002F7C007D0A1205CA7C007D0A1205CA74AA
:1003E8003A2DF8E6F50EAE2EAF2F7C007D0A1205E9
:1003F800CA743A2DF8E6F50F7F01120A9A7B007A43
:10040800007908120846D28E7B007A007908120813
:040418004602005048
:100A0400E4F54EF54CD2AF5389F0438901758AB0B1
:0A0A1400758C3CC28DD2A9D28C2251
:03000B000209E8FF
:1009E800C0E0C0D0758AB0758C3C054EE54EB40A9F
:0C09F80006754E00754C01D0D0D0E032E6
:100A6400D2AF53890F438910758BB0758D3CC28FFB
:050A7400D28ED2AB227E
:03001B00020AA92D
:090AA900758BB0758D3C054B32D4
:070ABA00D2AFD288D2A822BE
:030003000206EF03
:1006EF00C0E0C0F0C083C082C0D075D000C000C0D1
:1006FF0001C002C003C004C005C006C007054DE518
:10070F004D700A754F01120A04E4FF801AE54DB4CB
:10071F000109754F02C28C7F01800CE54DB4020CAC
:10072F00754F03C28C7F021209288012E54DB40366
:10073F000D754F04C28C7F03120928754DFFD0072A
:10074F00D006D005D004D003D002D001D000D0D035
:09075F00D082D083D0F0D0E0324A
:05000600C290C291222E
:02076800A907DF
:10076A00D290E4FB7E007401A803088005C333CE4F
:10077A0033CED8F9FFE9F582EF558224FF9292D25F
:10078A0091C2910BBB08DDE4FB7E007401A803084B
:10079A008005C333CE33CED8F9FFEDF582EF55820B
:1007AA0024FF9292D291C2910BBB08DDC290C292F1
:0107BA00221C
:0207BB00AD0788
:1007BD00E4F9430501D290FB7E007401A803088083
:1007CD0005C333CE33CED8F9FFEDF582EF55822434
:1007DD00FF9292C291D2910BBB08DDE4FBD291C284
:1007ED009130920DA8037401088002C333D8FC42E6
:0B07FD00010BBB08E8C290C292AF01E4
:0108080022CD
:060AC100EFC4540FFF22F8
:050AE500EF540FFF2299
:1009AD00D3EF9400EE940040147D7C7C00ED1D701F
:0D09BD00011CED4C70F7EF1F70E61E80E38B
:0109CA00220A
:080AB200000102030405060720
:100A3900113AC0F9A4B0999282F880908883C6A12E
:030A4900868E7F17
:0609CB008B338A348935EC
:1009D100E4FFAB33AA34A9358F8275830074FF120B
:0609E10005A80FBF08ECA1
:0109E70022ED
:060846008B338A34893572
:10084C00E4F53653A0F8E536900AB29342A0AB33E8
:10085C00AA34A93585368275830012057BF5807F15
:0F086C00017E001209AD0536E536C3940840D46D
:01087B00225A
:10092800EF14600F14601114601324037013C2B61F
:10093800C2B722D2B6C2B722C2B6D2B722D2B6D274
:02094800B722D4
:100A8A002830C5B80000008E2831C5B8000000B96A
:100A1E00D2A3C2A3120AC7D2A3120ACDA2A3E43351
:070A2E00F535120AC7AF35D0
:010A3500229E
:100A7900C2A30000EF24FF92A3120AD3D2A300005D
:010A8900224A
:100A4D00D2A3C2A30000D2A3120AD9A2A3E433F504
:060A5D0037120ADFAF377B
:010A63002270
:02094A008F37E5
:10094C00E4F538AF38A8077401088002C333D8FC2B
:0F095C005537FF120A790538E538C3940840E48F
:01096B002269
:10090200E4F536F535120A4DEF600FAF35A80774DE
:1009120001088002C333D8FC42360535E535C3945D
:050922000840E2AF36C1
:0109270022AD
:0D000E00120A1E7FCC12094A7F4402094AE3
:1008D700120A1E7FCC12094A7FBE12094A12090268
:1008E7008F54120902EFFEE554FFFDAC06EC12042B
:0B08F700C1E4FBFA7980784102041F85
:10096C008F55120A1E7FCC12094A7F4E12094AE497
:10097C00FF12094AE4FF12094AAF5512094A020A4A
:01098C001E4C
:06087C008B508A518952E5
:10088200120A1E7F3312094AE4F553120902AB50D1
:10089200AA51A952855382758300EF1205A8055308
:0708A200E553C3940840E494
:0108A900222C
:020809008F3529
:10080B007F5512094AE53514601A04702DE4F5364C
:10081B00E536900A8A93FF12094A0536E536C394EA
:10082B000840ED22E4F536E536900A9293FF120963
:0A083B004A0536E536C3940840ED87
:010845002290
:10098D008F338D34120A1EAF341208097F4E1209AF
:10099D004AE4FF12094AE4FF12094AAF3302094A39
:0F0A9A008F33120A1EAF331208097F4402094A34
:0208AA008F338A
:1008AC00120A1EAF331208097FBE12094A1209023E
:1008BC008F34120902EFFEE534FFFDAC06EC120496
:0B08CC00C1E4FBFA7980784102041FB0
:050AC700007FF7DFFED7
:010ACC002207
:050ACD00007F25DFFEA3
:010AD2002201
:050AD300007F1ADFFEA8
:010AD80022FB
:050AD900007F02DFFEBA
:010ADE0022F5
:050ADF00007F16DFFEA0
:010AE40022EF
:10041C00020570EC5D046005E85904700302056682
:10042C00120531580460F6EC4860F2EC7004FDFEE5
:10043C00FF22C860DB2481C85009C39860025006B3
:10044C0002056D9850CAF582E9294B4A7005AB82BA
:10045C0002055C75F0007C1A7880C3EF9BEE9AED78
:10046C0099400DC3EF9BFFEE9AFEED99FDE842F02B
:10047C00DC23ACF0D0E0FFD0E0FED0E0FDAB82207E
:10048C00E7101BEB60BAEC2CFCEF33FFEE33FEED08
:10049C0033FD020548E803F830E705C0F075F000BD
:1004AC00EF2FFFEE33FEED33FD40B830E7C280AAEC
:1004BC0075F020800E75F010800575F0087D007EBB
:1004CC00007F003392D530D503120600EC33401078
:1004DC00EF33FFEE33FEED33FDEC33FCD5F0ED22C4
:0E04EC00E5F0247EA2D513CC92E7CDCEFF2200
:1004FA00EDD2E7CD33EC3392D524814006E4FFFEFA
:10050A00FDFC22FCE4CFCECDCC24E0501174FF8058
:10051A00EDC3CC13CCCD13CDCE13CECF13CF0470F5
:07052A00F030D5DE020600EF
:10053100E9D2E7C933E833F892D5EDD2E7CD33EC10
:0705410033FC5002B2D52289
:10054800EC30E7100FBF000C0EBE00080DBD000414
:100558000BEB6014A2D5EB13FCED92E7FD2274FFC0
:10056800FCFDFEFF22E480F8A2D574FF13FC7D8019
:03057800E480EF2D
:10066F0002001EE493A3F8E493A34003F68001F283
:10067F0008DFF48029E493A3F85407240CC8C3338C
:10068F00C4540F4420C8834004F456800146F6DF5B
:10069F00E4800B0102040810204080900A36E47EAB
:1006AF00019360BCA3FF543F30E509541FFEE49350
:1006BF00A360010ECF54C025E060A840B8E493A317
:1006CF00FAE493A3F8E493A3C8C582C8CAC583CA42
:1006DF00F0A3C8C582C8CAC583CADFE9DEE780BEFA
:010A4C0000A9
:10057B00BB010CE58229F582E5833AF583E0225035
:10058B0006E92582F8E622BBFE06E92582F8E2227F
:0D059B00E58229F582E5833AF583E4932299
:1005A800F8BB010DE58229F582E5833AF583E8F089
:1005B800225006E92582C8F622BBFE05E92582C835
:0205C800F2221D
:1005CA00C2D5EC30E709B2D5E4C39DFDE49CFCEE4C
:1005DA0030E715B2D5E4C39FFFE49EFE12060EC3B0
:1005EA00E49DFDE49CFC800312060E30D507C3E4AB
:0605FA009FFFE49EFE22BB
:0E060000C3E49FFFE49EFEE49DFDE49CFC220B
:10060E00BC000BBE0029EF8DF084FFADF022E4CCD0
:10061E00F875F008EF2FFFEE33FEEC33FCEE9DEC99
:10062E00984005FCEE9DFE0FD5F0E9E4CEFD22EDDF
:10063E00F8F5F0EE8420D21CFEADF075F008EF2F29
:10064E00FFED33FD4007985006D5F0F222C398FD1A
:05065E000FD5F0EA22B7
:00000001FF
