:0F0211000A083F065B4F666D7D077F6F01120085
:10016400E4F5137516635389F0438901758AD075D4
:100174008C6FC28DD2AFD2A9C28C12000E8F13E540
:10018400136017F516C2B2D28CE51675F00A84F521
:1001940014E51675F00A8485F015E51660DC6463D1
:1001A40070177580FD75A0BF7F0FFE1201DC75808E
:1001B400FE75A0BF1201D880C17580FD7408251496
:0F01C4001201D37580FE740825151201D380AB8C
:10000E00E4FF7590FFC29320970B7F0FFE1201DC69
:10001E007F013097FD2096081201D87F053096FD9E
:10002E002095081201D87F093095FD209408120101
:10003E00D87F0D3094FD7590FFC292209708120163
:10004E00D87F023097FD2096081201D87F06309691
:10005E00FD2095081201D87F0A3095FD20940812D4
:10006E0001D87F0E3094FD7590FFC2912097081233
:10007E0001D87F033097FD2096081201D87F0730F4
:10008E0096FD2095081201D87F0B3095FD2094081F
:10009E001201D87F0F3094FD7590FFC29020970803
:1000AE001201D87F043097FD2096081201D87F08E0
:1000BE003096FD2095081201D87F0C3095FD2094C6
:0900CE00081201D87F103094FDE6
:0100D7002206
:0901D300F8E6F4F5A07F0F7E00B0
:1001DC00D3EF9400EE940040147D7C7C00ED1D70F8
:0D01EC00011CED4C70F7EF1F70E61E80E364
:0101F90022E3
:03000B000201FAF5
:1001FA00C0E0758AD0758C5F0512E512640C700434
:07020A00D2B2F512D0E03280
:030000000200D823
:0C00D800787FE4F6D8FD75811602011F48
:1000E400020164E493A3F8E493A34003F68001F2CD
:1000F40008DFF48029E493A3F85407240CC8C3331D
:10010400C4540F4420C8834004F456800146F6DFEB
:10011400E4800B0102040810204080900211E47E68
:10012400019360BCA3FF543F30E509541FFEE493E0
:10013400A360010ECF54C025E060A840B8E493A3A7
:10014400FAE493A3F8E493A3C8C582C8CAC583CAD2
:10015400F0A3C8C582C8CAC583CADFE9DEE780BE8A
:0102200000DD
:00000001FF
