:08022300E7DBBD7EDBE77EBDD9
:0A01EF002509F8E6F5A07F967E00D2
:1001F900EF1FAA0670011E4A6013E4FCFDC3ED94CB
:0D0209007BEC940050EA0DBD00010C80F06C
:0102160022C5
:10000300780A7C007D007BFF7A0279237E007F04DF
:100013001201C9780E7C007D007BFF7A0279277E6E
:10002300007F041201C9C2A07FE87E031201F9D246
:10003300A07FE87E031201F9C2A07FE87E031201CC
:10004300F930902E30932BE4F508F509C3E50994B4
:1000530008E508940050EAAF09A807740108800274
:10006300C333D8FCF41201F30509E50970DE050872
:1000730080DA20902E30932BE4F508F509C3E509C7
:100083009408E508940050B9AF09A8077480088064
:1000930002C313D8FCF41201F30509E50970DE0568
:1000A3000880DA30902220931FE4F508F509C3E5B0
:1000B300099404E50894005088740A1201EF0509B5
:1000C300E50970EA050880E63090030200443093A6
:1000D30003020044E4F508F509C3E5099404E508BF
:1000E30094004003020044740E1201EF0509E50970
:0600F30070E7050880E340
:03000000020217E2
:0C021700787FE4F6D8FD75811102000329
:1000F900E709F608DFFA8046E709F208DFFA803EE9
:1001090088828C83E709F0A3DFFA8032E309F608D5
:10011900DFFA8078E309F208DFFA807088828C833D
:10012900E309F0A3DFFA806489828A83E0A3F608F1
:10013900DFFA805889828A83E0A3F208DFFA804CCB
:1001490080D280FA80C680D4806980F280338010A2
:1001590080A680EA809A80A880DA80E280CA80330B
:1001690089828A83ECFAE493A3C8C582C8CCC58383
:10017900CCF0A3C8C582C8CCC583CCDFE9DEE78053
:100189000D89828A83E493A3F608DFF9ECFAA9F0D2
:10019900EDFB2289828A83ECFAE0A3C8C582C8CC28
:1001A900C583CCF0A3C8C582C8CCC583CCDFEADE41
:1001B900E880DB89828A83E493A3F208DFF980CCA3
:1001C90088F0EF60010E4E60C388F0ED2402B4049C
:1001D9000050B9F582EB2402B4040050AF23234543
:0601E9008223900149731E
:00000001FF
